{
  "contractName": "SocialNetwork",
  "abi": [
    {
      "inputs": [],
      "payable": false,
      "stateMutability": "nonpayable",
      "type": "constructor"
    },
    {
      "constant": true,
      "inputs": [],
      "name": "postCount",
      "outputs": [
        {
          "internalType": "uint256",
          "name": "",
          "type": "uint256"
        }
      ],
      "payable": false,
      "stateMutability": "view",
      "type": "function"
    },
    {
      "constant": true,
      "inputs": [],
      "name": "getPostCount",
      "outputs": [
        {
          "internalType": "uint256",
          "name": "",
          "type": "uint256"
        }
      ],
      "payable": false,
      "stateMutability": "view",
      "type": "function"
    }
  ],
  "bytecode": "0x608060405234801561001057600080fd5b506000808190555060b3806100266000396000f3fe6080604052348015600f57600080fd5b506004361060325760003560e01c806317906c2e146037578063bcc95407146053575b600080fd5b603d606f565b6040518082815260200191505060405180910390f35b60596075565b6040518082815260200191505060405180910390f35b60005481565b6000805490509056fea265627a7a723158202ef61edf61f62fa3aac42a964df8156203119b45ce56c6c591f8eef5ece9f06164736f6c63430005100032",
  "source": "pragma solidity >=0.4.21 <0.6.0;\n\ncontract SocialNetwork{\n  uint256 public postCount;\n  struct Post{\n    uint256 _id;\n    string _content;\n  }\n\n  constructor() public{\n    postCount = 0;\n  }\n\n  function getPostCount() public view returns(uint){\n    return postCount;\n  }\n\n}",
  "sourcePath": "/Users/irenechow/Desktop/blockchain-learning/social-dapp/src/contracts/SocialNetwork.sol",
  "compiler": {
    "name": "solc",
    "version": "0.5.16+commit.9c3226ce.Emscripten.clang"
  },
  "schemaVersion": "3.4.5",
  "updatedAt": "2022-03-10T14:12:00.372Z",
  "networkType": "ethereum",
  "devdoc": {
    "methods": {}
  },
  "userdoc": {
    "methods": {}
  }
}